:02000000B42822
:10000800FF00030E8301AA000A08AB008A017008EA
:10001800A3007B08A2007C08A1007D08A0008B1C1F
:1000280092280510051E3D282608003A031D3D2884
:10003800143086001F30FB007130FC001E30FD00BC
:10004800FD0B2428FC0B2428FB0B2428000042303D
:1000580086000130A6000B30FB002630FC005D3026
:10006800FD00FD0B3528FC0B3528FB0B352800005F
:1000780000002608013A031D5228A70142308600D5
:100088000B30FB002630FC005D30FD00FD0B4A28DC
:10009800FC0B4A28FB0B4A2800000000051A7928A7
:1000A8002708003A031D7928223086001F30FB00FC
:1000B8007130FC001E30FD00FD0B6028FC0B602831
:1000C800FB0B60280000183086000130A7000B30B9
:1000D800FB002630FC005D30FD00FD0B7128FC0B99
:1000E8007128FB0B7128000000002708013A031D46
:1000F8008E28A601183086000B30FB002630FC0045
:100108005D30FD00FD0B8628FC0B8628FB0B86283E
:1001180000000000061C92288B1005142308F0002C
:100128002208FB002108FC002008FD002B088A009B
:0A0138002A0E8300FF0E7F0E09005F
:0E0142008312031329088A002808820008008F
:10015000A1208A110A128000840AA80A0319A90A98
:08016000F003031DA8280800AC
:10016800013083120313A4000130A500A601A701E2
:1001780001308316860005160510870188018B1744
:100188000B16011383120514423086000130A400B7
:100198002408093C031CE428240888000808870070
:1001A8000B30FB002630FC005D30FD00FD0BDA282B
:1001B800FC0BDA28FB0BDA2800000000A40ACC2884
:1001C8001030A4002408153C031C1B292408123CE9
:1001D800031C002924088800080887000B30FB004E
:1001E8002630FC005D30FD00FD0BF828FC0BF828DC
:1001F800FB0BF828000000002408123C03181929FA
:10020800223086002408870025088800A50A0B30BC
:10021800FB002630FC005D30FD00FD0B1129FC0BB6
:100228001129FB0B112900000000A40AE62801305F
:10023800A5000130A400183086000130A40024086D
:10024800093C031C3B2924088800080887000B3058
:10025800FB002630FC005D30FD00FD0B3129FC0B56
:100268003129FB0B312900000000A40A2329103092
:10027800A4002408193C031C5529240888000808F0
:1002880087000B30FB002630FC005D30FD00FD0BC5
:100298004B29FC0B4B29FB0B4B2900000000A40A3F
:1002A8003D292030A4002408233C031C8929240864
:1002B800203A031D722924088700070888000B309C
:1002C800FB002630FC005D30FD00FD0B6929FC0BAE
:1002D8006929FB0B69290000000087291430860072
:1002E8002408880025088700A50A0B30FB00263063
:1002F800FC005D30FD00FD0B7F29FC0B7F29FB0B0B
:0E0308007F2900000000A40A5729C6288A2970
:02400E004A2F37
:00000001FF
